{
  "contractName": "Campaign",
  "abi": [
    {
      "inputs": [
        {
          "internalType": "uint256",
          "name": "minimum",
          "type": "uint256"
        },
        {
          "internalType": "address",
          "name": "creator",
          "type": "address"
        }
      ],
      "payable": false,
      "stateMutability": "nonpayable",
      "type": "constructor"
    },
    {
      "constant": true,
      "inputs": [
        {
          "internalType": "address",
          "name": "",
          "type": "address"
        }
      ],
      "name": "approvers",
      "outputs": [
        {
          "internalType": "bool",
          "name": "",
          "type": "bool"
        }
      ],
      "payable": false,
      "stateMutability": "view",
      "type": "function"
    },
    {
      "constant": true,
      "inputs": [],
      "name": "approversCount",
      "outputs": [
        {
          "internalType": "uint256",
          "name": "",
          "type": "uint256"
        }
      ],
      "payable": false,
      "stateMutability": "view",
      "type": "function"
    },
    {
      "constant": true,
      "inputs": [],
      "name": "manager",
      "outputs": [
        {
          "internalType": "address",
          "name": "",
          "type": "address"
        }
      ],
      "payable": false,
      "stateMutability": "view",
      "type": "function"
    },
    {
      "constant": true,
      "inputs": [],
      "name": "minimumContribution",
      "outputs": [
        {
          "internalType": "uint256",
          "name": "",
          "type": "uint256"
        }
      ],
      "payable": false,
      "stateMutability": "view",
      "type": "function"
    },
    {
      "constant": true,
      "inputs": [
        {
          "internalType": "uint256",
          "name": "",
          "type": "uint256"
        }
      ],
      "name": "requests",
      "outputs": [
        {
          "internalType": "string",
          "name": "description",
          "type": "string"
        },
        {
          "internalType": "uint256",
          "name": "value",
          "type": "uint256"
        },
        {
          "internalType": "address payable",
          "name": "recipient",
          "type": "address"
        },
        {
          "internalType": "bool",
          "name": "complete",
          "type": "bool"
        },
        {
          "internalType": "uint256",
          "name": "approvalCount",
          "type": "uint256"
        }
      ],
      "payable": false,
      "stateMutability": "view",
      "type": "function"
    },
    {
      "constant": false,
      "inputs": [],
      "name": "contribute",
      "outputs": [],
      "payable": true,
      "stateMutability": "payable",
      "type": "function"
    },
    {
      "constant": false,
      "inputs": [
        {
          "internalType": "string",
          "name": "description",
          "type": "string"
        },
        {
          "internalType": "uint256",
          "name": "value",
          "type": "uint256"
        },
        {
          "internalType": "address payable",
          "name": "recipient",
          "type": "address"
        }
      ],
      "name": "createRequest",
      "outputs": [],
      "payable": false,
      "stateMutability": "nonpayable",
      "type": "function"
    },
    {
      "constant": false,
      "inputs": [
        {
          "internalType": "uint256",
          "name": "index",
          "type": "uint256"
        }
      ],
      "name": "approveRequest",
      "outputs": [],
      "payable": false,
      "stateMutability": "nonpayable",
      "type": "function"
    },
    {
      "constant": false,
      "inputs": [
        {
          "internalType": "uint256",
          "name": "index",
          "type": "uint256"
        }
      ],
      "name": "finalizeRequest",
      "outputs": [],
      "payable": false,
      "stateMutability": "nonpayable",
      "type": "function"
    },
    {
      "constant": true,
      "inputs": [],
      "name": "getCampaignSummary",
      "outputs": [
        {
          "components": [
            {
              "internalType": "uint256",
              "name": "minimumContribution",
              "type": "uint256"
            },
            {
              "internalType": "uint256",
              "name": "contractBalance",
              "type": "uint256"
            },
            {
              "internalType": "uint256",
              "name": "requestsCount",
              "type": "uint256"
            },
            {
              "internalType": "uint256",
              "name": "approversCount",
              "type": "uint256"
            },
            {
              "internalType": "address",
              "name": "manager",
              "type": "address"
            }
          ],
          "internalType": "struct Campaign.Summary",
          "name": "",
          "type": "tuple"
        }
      ],
      "payable": false,
      "stateMutability": "view",
      "type": "function"
    },
    {
      "constant": true,
      "inputs": [],
      "name": "getRequestsCount",
      "outputs": [
        {
          "internalType": "uint256",
          "name": "",
          "type": "uint256"
        }
      ],
      "payable": false,
      "stateMutability": "view",
      "type": "function"
    }
  ],
  "bytecode": "0x60806040523480156200001157600080fd5b506040516200109c3803806200109c8339818101604052620000379190810190620000b5565b80600160006101000a81548173ffffffffffffffffffffffffffffffffffffffff021916908373ffffffffffffffffffffffffffffffffffffffff16021790555081600281905550505062000168565b600081519050620000988162000134565b92915050565b600081519050620000af816200014e565b92915050565b60008060408385031215620000c957600080fd5b6000620000d9858286016200009e565b9250506020620000ec8582860162000087565b9150509250929050565b600062000103826200010a565b9050919050565b600073ffffffffffffffffffffffffffffffffffffffff82169050919050565b6000819050919050565b6200013f81620000f6565b81146200014b57600080fd5b50565b62000159816200012a565b81146200016557600080fd5b50565b610f2480620001786000396000f3fe60806040526004361061009c5760003560e01c806382fde0931161006457806382fde0931461019e5780638a9cfd55146101c9578063937e09b1146101f2578063a00c96d71461021d578063d7bb99ba14610248578063d7d1bbdb146102525761009c565b806303441006146100a15780630a144391146100ca5780633410452a14610107578063481c6a751461013257806381d12c581461015d575b600080fd5b3480156100ad57600080fd5b506100c860048036036100c39190810190610b90565b61027b565b005b3480156100d657600080fd5b506100f160048036036100ec9190810190610b00565b6103bb565b6040516100fe9190610ccf565b60405180910390f35b34801561011357600080fd5b5061011c6103db565b6040516101299190610d5f565b60405180910390f35b34801561013e57600080fd5b506101476103e7565b6040516101549190610cb4565b60405180910390f35b34801561016957600080fd5b50610184600480360361017f9190810190610b90565b61040d565b604051610195959493929190610cea565b60405180910390f35b3480156101aa57600080fd5b506101b3610515565b6040516101c09190610d5f565b60405180910390f35b3480156101d557600080fd5b506101f060048036036101eb9190810190610b29565b61051b565b005b3480156101fe57600080fd5b5061020761068f565b6040516102149190610d5f565b60405180910390f35b34801561022957600080fd5b50610232610695565b60405161023f9190610d44565b60405180910390f35b610250610716565b005b34801561025e57600080fd5b5061027960048036036102749190810190610b90565b6107e3565b005b600160009054906101000a900473ffffffffffffffffffffffffffffffffffffffff1673ffffffffffffffffffffffffffffffffffffffff163373ffffffffffffffffffffffffffffffffffffffff16146102d557600080fd5b60008082815481106102e357fe5b906000526020600020906005020190506002600354816102ff57fe5b0481600301541161030f57600080fd5b8060020160149054906101000a900460ff161561032b57600080fd5b8060020160009054906101000a900473ffffffffffffffffffffffffffffffffffffffff1673ffffffffffffffffffffffffffffffffffffffff166108fc82600101549081150290604051600060405180830381858888f19350505050158015610399573d6000803e3d6000fd5b5060018160020160146101000a81548160ff0219169083151502179055505050565b60046020528060005260406000206000915054906101000a900460ff1681565b60008080549050905090565b600160009054906101000a900473ffffffffffffffffffffffffffffffffffffffff1681565b6000818154811061041a57fe5b9060005260206000209060050201600091509050806000018054600181600116156101000203166002900480601f0160208091040260200160405190810160405280929190818152602001828054600181600116156101000203166002900480156104c65780601f1061049b576101008083540402835291602001916104c6565b820191906000526020600020905b8154815290600101906020018083116104a957829003601f168201915b5050505050908060010154908060020160009054906101000a900473ffffffffffffffffffffffffffffffffffffffff16908060020160149054906101000a900460ff16908060030154905085565b60035481565b600160009054906101000a900473ffffffffffffffffffffffffffffffffffffffff1673ffffffffffffffffffffffffffffffffffffffff163373ffffffffffffffffffffffffffffffffffffffff161461057557600080fd5b61057d61093c565b6040518060a001604052808581526020018481526020018373ffffffffffffffffffffffffffffffffffffffff1681526020016000151581526020016000815250905060008190806001815401808255809150509060018203906000526020600020906005020160009091929091909150600082015181600001908051906020019061060a929190610983565b506020820151816001015560408201518160020160006101000a81548173ffffffffffffffffffffffffffffffffffffffff021916908373ffffffffffffffffffffffffffffffffffffffff16021790555060608201518160020160146101000a81548160ff0219169083151502179055506080820151816003015550505050505050565b60025481565b61069d610a03565b6106a5610a03565b6040518060a00160405280600254815260200147815260200160008054905081526020016003548152602001600160009054906101000a900473ffffffffffffffffffffffffffffffffffffffff1673ffffffffffffffffffffffffffffffffffffffff1681525090508091505090565b60025434101561072557600080fd5b600460003373ffffffffffffffffffffffffffffffffffffffff1673ffffffffffffffffffffffffffffffffffffffff16815260200190815260200160002060009054906101000a900460ff166107e1576001600460003373ffffffffffffffffffffffffffffffffffffffff1673ffffffffffffffffffffffffffffffffffffffff16815260200190815260200160002060006101000a81548160ff0219169083151502179055506003600081548092919060010191905055505b565b60008082815481106107f157fe5b90600052602060002090600502019050600460003373ffffffffffffffffffffffffffffffffffffffff1673ffffffffffffffffffffffffffffffffffffffff16815260200190815260200160002060009054906101000a900460ff1661085757600080fd5b8060040160003373ffffffffffffffffffffffffffffffffffffffff1673ffffffffffffffffffffffffffffffffffffffff16815260200190815260200160002060009054906101000a900460ff16156108b057600080fd5b60018160040160003373ffffffffffffffffffffffffffffffffffffffff1673ffffffffffffffffffffffffffffffffffffffff16815260200190815260200160002060006101000a81548160ff0219169083151502179055506000828154811061091757fe5b9060005260206000209060050201600301600081548092919060010191905055505050565b6040518060a001604052806060815260200160008152602001600073ffffffffffffffffffffffffffffffffffffffff168152602001600015158152602001600081525090565b828054600181600116156101000203166002900490600052602060002090601f016020900481019282601f106109c457805160ff19168380011785556109f2565b828001600101855582156109f2579182015b828111156109f15782518255916020019190600101906109d6565b5b5090506109ff9190610a48565b5090565b6040518060a0016040528060008152602001600081526020016000815260200160008152602001600073ffffffffffffffffffffffffffffffffffffffff1681525090565b610a6a91905b80821115610a66576000816000905550600101610a4e565b5090565b90565b600081359050610a7c81610e9c565b92915050565b600081359050610a9181610eb3565b92915050565b600082601f830112610aa857600080fd5b8135610abb610ab682610da7565b610d7a565b91508082526020830160208301858383011115610ad757600080fd5b610ae2838284610e49565b50505092915050565b600081359050610afa81610eca565b92915050565b600060208284031215610b1257600080fd5b6000610b2084828501610a6d565b91505092915050565b600080600060608486031215610b3e57600080fd5b600084013567ffffffffffffffff811115610b5857600080fd5b610b6486828701610a97565b9350506020610b7586828701610aeb565b9250506040610b8686828701610a82565b9150509250925092565b600060208284031215610ba257600080fd5b6000610bb084828501610aeb565b91505092915050565b610bc281610e01565b82525050565b610bd181610def565b82525050565b610be081610def565b82525050565b610bef81610e13565b82525050565b6000610c0082610dd3565b610c0a8185610dde565b9350610c1a818560208601610e58565b610c2381610e8b565b840191505092915050565b60a082016000820151610c446000850182610c96565b506020820151610c576020850182610c96565b506040820151610c6a6040850182610c96565b506060820151610c7d6060850182610c96565b506080820151610c906080850182610bc8565b50505050565b610c9f81610e3f565b82525050565b610cae81610e3f565b82525050565b6000602082019050610cc96000830184610bd7565b92915050565b6000602082019050610ce46000830184610be6565b92915050565b600060a0820190508181036000830152610d048188610bf5565b9050610d136020830187610ca5565b610d206040830186610bb9565b610d2d6060830185610be6565b610d3a6080830184610ca5565b9695505050505050565b600060a082019050610d596000830184610c2e565b92915050565b6000602082019050610d746000830184610ca5565b92915050565b6000604051905081810181811067ffffffffffffffff82111715610d9d57600080fd5b8060405250919050565b600067ffffffffffffffff821115610dbe57600080fd5b601f19601f8301169050602081019050919050565b600081519050919050565b600082825260208201905092915050565b6000610dfa82610e1f565b9050919050565b6000610e0c82610e1f565b9050919050565b60008115159050919050565b600073ffffffffffffffffffffffffffffffffffffffff82169050919050565b6000819050919050565b82818337600083830152505050565b60005b83811015610e76578082015181840152602081019050610e5b565b83811115610e85576000848401525b50505050565b6000601f19601f8301169050919050565b610ea581610def565b8114610eb057600080fd5b50565b610ebc81610e01565b8114610ec757600080fd5b50565b610ed381610e3f565b8114610ede57600080fd5b5056fea365627a7a7231582083380d0d3178f412f3ea769b998c0d70ca7b52f34daead826323424cb2b843c96c6578706572696d656e74616cf564736f6c63430005100040",
  "source": "pragma solidity ^0.5.1;\npragma experimental ABIEncoderV2;\n\ncontract CampaignFactory {\n    address[] public deployedCampaigns;\n\n    function createCampaign(uint256 minimum) public {\n        Campaign newCampaign = new Campaign(minimum, msg.sender);\n        deployedCampaigns.push(address(newCampaign));\n    }\n\n    function getDeployedCampaigns() public view returns (address[] memory) {\n        return deployedCampaigns;\n    }\n}\n\ncontract Campaign {\n    struct Request {\n        string description;\n        uint256 value;\n        address payable recipient;\n        bool complete;\n        uint256 approvalCount;\n        mapping(address => bool) approvals;\n    }\n\n    struct Summary {\n      uint256 minimumContribution;\n      uint256 contractBalance;\n      uint256 requestsCount;\n      uint256 approversCount;\n      address manager;\n    }\n\n    Request[] public requests;\n    address public manager;\n    uint256 public minimumContribution;\n    uint256 public approversCount;\n    mapping(address => bool) public approvers;\n\n    modifier managerOnly() {\n        require(msg.sender == manager);\n        _;\n    }\n\n    constructor(uint256 minimum, address creator) public {\n        manager = creator;\n        minimumContribution = minimum;\n    }\n\n    function contribute() public payable {\n        require(msg.value >= minimumContribution);\n\n        if (!approvers[msg.sender]) {\n            approvers[msg.sender] = true;\n            approversCount++;\n        }\n    }\n\n    function createRequest(\n        string memory description,\n        uint256 value,\n        address payable recipient\n    ) public managerOnly {\n        Request memory newRequest = Request({\n            description: description,\n            value: value,\n            recipient: recipient,\n            complete: false,\n            approvalCount: 0\n        });\n        requests.push(newRequest);\n    }\n\n    function approveRequest(uint256 index) public {\n        Request storage request = requests[index];\n\n        require(approvers[msg.sender]);\n        require(!request.approvals[msg.sender]);\n\n        request.approvals[msg.sender] = true;\n        requests[index].approvalCount++;\n    }\n\n    function finalizeRequest(uint256 index) public managerOnly {\n        Request storage request = requests[index];\n\n        require(request.approvalCount > (approversCount / 2));\n        require(!request.complete);\n\n        request.recipient.transfer(request.value);\n        request.complete = true;\n    }\n\n    function getCampaignSummary() public view returns (Summary memory) {\n      Summary memory summary = Summary({\n        minimumContribution: minimumContribution,\n        contractBalance: address(this).balance,\n        requestsCount: requests.length,\n        approversCount: approversCount,\n        manager: manager\n      });\n      return summary;\n    }\n\n    function getRequestsCount() public view returns (uint256) {\n      return requests.length;\n    }\n}\n",
  "sourcePath": "/Users/franco/Repos/solidity/solidity-kickstarter/core/contracts/Campaign.sol",
  "compiler": {
    "name": "solc",
    "version": "0.5.16+commit.9c3226ce.Emscripten.clang"
  },
  "schemaVersion": "3.4.3",
  "updatedAt": "2021-09-13T03:17:54.474Z",
  "devdoc": {
    "methods": {}
  },
  "userdoc": {
    "methods": {}
  }
}